{
  "contractName": "Ballot",
  "abi": [
    {
      "inputs": [
        {
          "internalType": "string[]",
          "name": "candidatesNames",
          "type": "string[]"
        }
      ],
      "payable": false,
      "stateMutability": "nonpayable",
      "type": "constructor"
    },
    {
      "constant": true,
      "inputs": [
        {
          "internalType": "uint256",
          "name": "",
          "type": "uint256"
        }
      ],
      "name": "candidates",
      "outputs": [
        {
          "internalType": "string",
          "name": "name",
          "type": "string"
        },
        {
          "internalType": "uint256",
          "name": "voteCount",
          "type": "uint256"
        }
      ],
      "payable": false,
      "stateMutability": "view",
      "type": "function"
    },
    {
      "constant": true,
      "inputs": [],
      "name": "chairperson",
      "outputs": [
        {
          "internalType": "address",
          "name": "",
          "type": "address"
        }
      ],
      "payable": false,
      "stateMutability": "view",
      "type": "function"
    },
    {
      "constant": true,
      "inputs": [],
      "name": "finished",
      "outputs": [
        {
          "internalType": "bool",
          "name": "",
          "type": "bool"
        }
      ],
      "payable": false,
      "stateMutability": "view",
      "type": "function"
    },
    {
      "constant": true,
      "inputs": [
        {
          "internalType": "address",
          "name": "",
          "type": "address"
        }
      ],
      "name": "voters",
      "outputs": [
        {
          "internalType": "bool",
          "name": "voted",
          "type": "bool"
        },
        {
          "internalType": "uint256",
          "name": "vote",
          "type": "uint256"
        }
      ],
      "payable": false,
      "stateMutability": "view",
      "type": "function"
    },
    {
      "constant": true,
      "inputs": [
        {
          "internalType": "uint256",
          "name": "",
          "type": "uint256"
        }
      ],
      "name": "winners",
      "outputs": [
        {
          "internalType": "string",
          "name": "name",
          "type": "string"
        },
        {
          "internalType": "uint256",
          "name": "voteCount",
          "type": "uint256"
        }
      ],
      "payable": false,
      "stateMutability": "view",
      "type": "function"
    },
    {
      "constant": true,
      "inputs": [],
      "name": "getCandidates",
      "outputs": [
        {
          "components": [
            {
              "internalType": "string",
              "name": "name",
              "type": "string"
            },
            {
              "internalType": "uint256",
              "name": "voteCount",
              "type": "uint256"
            }
          ],
          "internalType": "struct Ballot.Candidate[]",
          "name": "_candidates",
          "type": "tuple[]"
        }
      ],
      "payable": false,
      "stateMutability": "view",
      "type": "function"
    },
    {
      "constant": false,
      "inputs": [
        {
          "internalType": "uint256",
          "name": "candidate",
          "type": "uint256"
        }
      ],
      "name": "vote",
      "outputs": [],
      "payable": false,
      "stateMutability": "nonpayable",
      "type": "function"
    },
    {
      "constant": false,
      "inputs": [],
      "name": "finishVoting",
      "outputs": [],
      "payable": false,
      "stateMutability": "nonpayable",
      "type": "function"
    },
    {
      "constant": true,
      "inputs": [],
      "name": "isFinished",
      "outputs": [
        {
          "internalType": "bool",
          "name": "finished_",
          "type": "bool"
        }
      ],
      "payable": false,
      "stateMutability": "view",
      "type": "function"
    },
    {
      "constant": false,
      "inputs": [],
      "name": "winningProposal",
      "outputs": [
        {
          "internalType": "bool",
          "name": "_draw",
          "type": "bool"
        },
        {
          "components": [
            {
              "internalType": "string",
              "name": "name",
              "type": "string"
            },
            {
              "internalType": "uint256",
              "name": "voteCount",
              "type": "uint256"
            }
          ],
          "internalType": "struct Ballot.Candidate[]",
          "name": "winners_",
          "type": "tuple[]"
        }
      ],
      "payable": false,
      "stateMutability": "nonpayable",
      "type": "function"
    },
    {
      "constant": false,
      "inputs": [],
      "name": "winnerName",
      "outputs": [
        {
          "internalType": "bool",
          "name": "draw_",
          "type": "bool"
        },
        {
          "components": [
            {
              "internalType": "string",
              "name": "name",
              "type": "string"
            },
            {
              "internalType": "uint256",
              "name": "voteCount",
              "type": "uint256"
            }
          ],
          "internalType": "struct Ballot.Candidate[]",
          "name": "winners_",
          "type": "tuple[]"
        }
      ],
      "payable": false,
      "stateMutability": "nonpayable",
      "type": "function"
    }
  ],
  "bytecode": "0x60806040523480156200001157600080fd5b5060405162001391380380620013918339818101604052620000379190810190620002a8565b336000806101000a81548173ffffffffffffffffffffffffffffffffffffffff021916908373ffffffffffffffffffffffffffffffffffffffff16021790555060008090505b8151811015620001185760026040518060400160405280848481518110620000a157fe5b602002602001015181526020016000815250908060018154018082558091505090600182039060005260206000209060020201600090919290919091506000820151816000019080519060200190620000fc92919062000120565b506020820151816001015550505080806001019150506200007d565b5050620003a7565b828054600181600116156101000203166002900490600052602060002090601f016020900481019282601f106200016357805160ff191683800117855562000194565b8280016001018555821562000194579182015b828111156200019357825182559160200191906001019062000176565b5b509050620001a39190620001a7565b5090565b620001cc91905b80821115620001c8576000816000905550600101620001ae565b5090565b90565b600082601f830112620001e157600080fd5b8151620001f8620001f2826200031b565b620002ed565b9150818183526020840193506020810190508360005b838110156200024257815186016200022788826200024c565b8452602084019350602083019250506001810190506200020e565b5050505092915050565b600082601f8301126200025e57600080fd5b8151620002756200026f8262000344565b620002ed565b915080825260208301602083018583830111156200029257600080fd5b6200029f83828462000371565b50505092915050565b600060208284031215620002bb57600080fd5b600082015167ffffffffffffffff811115620002d657600080fd5b620002e484828501620001cf565b91505092915050565b6000604051905081810181811067ffffffffffffffff821117156200031157600080fd5b8060405250919050565b600067ffffffffffffffff8211156200033357600080fd5b602082029050602081019050919050565b600067ffffffffffffffff8211156200035c57600080fd5b601f19601f8301169050602081019050919050565b60005b838110156200039157808201518184015260208101905062000374565b83811115620003a1576000848401525b50505050565b610fda80620003b76000396000f3fe608060405234801561001057600080fd5b50600436106100a95760003560e01c80637b352962116100715780637b35296214610156578063a2fb117514610174578063a3ec138d146101a5578063bef4876b146101d6578063e2ba53f0146101f4578063f909430314610213576100a9565b80630121b93f146100ae57806306a49fce146100ca5780632e4176cf146100e85780633477ee2e14610106578063609ff1bd14610137575b600080fd5b6100c860048036036100c39190810190610b39565b61021d565b005b6100d261035a565b6040516100df9190610d71565b60405180910390f35b6100f0610465565b6040516100fd9190610d56565b60405180910390f35b610120600480360361011b9190810190610b39565b61048a565b60405161012e929190610e07565b60405180910390f35b61013f610553565b60405161014d929190610dae565b60405180910390f35b61015e610836565b60405161016b9190610d93565b60405180910390f35b61018e60048036036101899190810190610b39565b61084d565b60405161019c929190610e07565b60405180910390f35b6101bf60048036036101ba9190810190610b10565b610916565b6040516101cd929190610dde565b60405180910390f35b6101de610947565b6040516101eb9190610d93565b60405180910390f35b6101fc61095a565b60405161020a929190610dae565b60405180910390f35b61021b61097a565b005b6000600160003373ffffffffffffffffffffffffffffffffffffffff1673ffffffffffffffffffffffffffffffffffffffff16815260200190815260200160002090508060000160009054906101000a900460ff16156102b2576040517f08c379a00000000000000000000000000000000000000000000000000000000081526004016102a990610e37565b60405180910390fd5b600460009054906101000a900460ff1615610302576040517f08c379a00000000000000000000000000000000000000000000000000000000081526004016102f990610e57565b60405180910390fd5b60018160000160006101000a81548160ff0219169083151502179055508181600101819055506002828154811061033557fe5b9060005260206000209060020201600101600081548092919060010191905055505050565b60606002805480602002602001604051908101604052809291908181526020016000905b8282101561045c5783829060005260206000209060020201604051806040016040529081600082018054600181600116156101000203166002900480601f01602080910402602001604051908101604052809291908181526020018280546001816001161561010002031660029004801561043a5780601f1061040f5761010080835404028352916020019161043a565b820191906000526020600020905b81548152906001019060200180831161041d57829003601f168201915b505050505081526020016001820154815250508152602001906001019061037e565b50505050905090565b6000809054906101000a900473ffffffffffffffffffffffffffffffffffffffff1681565b6002818154811061049757fe5b9060005260206000209060020201600091509050806000018054600181600116156101000203166002900480601f0160208091040260200160405190810160405280929190818152602001828054600181600116156101000203166002900480156105435780601f1061051857610100808354040283529160200191610543565b820191906000526020600020905b81548152906001019060200180831161052657829003601f168201915b5050505050908060010154905082565b60006060600080905060008090505b60028054905081101561072a57816002828154811061057d57fe5b906000526020600020906002020160010154111561064a57600360006105a39190610997565b600281815481106105b057fe5b9060005260206000209060020201600101549150600093506003600282815481106105d757fe5b906000526020600020906002020190806001815401808255809150509060018203906000526020600020906002020160009091929091909150600082018160000190805460018160011615610100020316600290046106379291906109bb565b506001820154816001015550505061071d565b60006002828154811061065957fe5b9060005260206000209060020201600101541180156106955750816002828154811061068157fe5b906000526020600020906002020160010154145b1561071c57600193506003600282815481106106ad57fe5b9060005260206000209060020201908060018154018082558091505090600182039060005260206000209060020201600090919290919091506000820181600001908054600181600116156101000203166002900461070d9291906109bb565b50600182015481600101555050505b5b8080600101915050610562565b506003805480602002602001604051908101604052809291908181526020016000905b8282101561082b5783829060005260206000209060020201604051806040016040529081600082018054600181600116156101000203166002900480601f0160208091040260200160405190810160405280929190818152602001828054600181600116156101000203166002900480156108095780601f106107de57610100808354040283529160200191610809565b820191906000526020600020905b8154815290600101906020018083116107ec57829003601f168201915b505050505081526020016001820154815250508152602001906001019061074d565b505050509150509091565b6000600460009054906101000a900460ff16905090565b6003818154811061085a57fe5b9060005260206000209060020201600091509050806000018054600181600116156101000203166002900480601f0160208091040260200160405190810160405280929190818152602001828054600181600116156101000203166002900480156109065780601f106108db57610100808354040283529160200191610906565b820191906000526020600020905b8154815290600101906020018083116108e957829003601f168201915b5050505050908060010154905082565b60016020528060005260406000206000915090508060000160009054906101000a900460ff16908060010154905082565b600460009054906101000a900460ff1681565b600060606000606061096a610553565b9150915081935080925050509091565b6001600460006101000a81548160ff021916908315150217905550565b50805460008255600202906000526020600020908101906109b89190610a42565b50565b828054600181600116156101000203166002900490600052602060002090601f016020900481019282601f106109f45780548555610a31565b82800160010185558215610a3157600052602060002091601f016020900482015b82811115610a30578254825591600101919060010190610a15565b5b509050610a3e9190610a79565b5090565b610a7691905b80821115610a725760008082016000610a619190610a9e565b600182016000905550600201610a48565b5090565b90565b610a9b91905b80821115610a97576000816000905550600101610a7f565b5090565b90565b50805460018160011615610100020316600290046000825580601f10610ac45750610ae3565b601f016020900490600052602060002090810190610ae29190610a79565b5b50565b600081359050610af581610f69565b92915050565b600081359050610b0a81610f80565b92915050565b600060208284031215610b2257600080fd5b6000610b3084828501610ae6565b91505092915050565b600060208284031215610b4b57600080fd5b6000610b5984828501610afb565b91505092915050565b6000610b6e8383610cfb565b905092915050565b610b7f81610edd565b82525050565b6000610b9082610e87565b610b9a8185610eaa565b935083602082028501610bac85610e77565b8060005b85811015610be85784840389528151610bc98582610b62565b9450610bd483610e9d565b925060208a01995050600181019050610bb0565b50829750879550505050505092915050565b610c0381610eef565b82525050565b6000610c1482610e92565b610c1e8185610ebb565b9350610c2e818560208601610f25565b610c3781610f58565b840191505092915050565b6000610c4d82610e92565b610c578185610ecc565b9350610c67818560208601610f25565b610c7081610f58565b840191505092915050565b6000610c88600e83610ecc565b91507f416c726561647920766f7465642e0000000000000000000000000000000000006000830152602082019050919050565b6000610cc8601183610ecc565b91507f416c72656164792066696e69736865642e0000000000000000000000000000006000830152602082019050919050565b60006040830160008301518482036000860152610d188282610c09565b9150506020830151610d2d6020860182610d38565b508091505092915050565b610d4181610f1b565b82525050565b610d5081610f1b565b82525050565b6000602082019050610d6b6000830184610b76565b92915050565b60006020820190508181036000830152610d8b8184610b85565b905092915050565b6000602082019050610da86000830184610bfa565b92915050565b6000604082019050610dc36000830185610bfa565b8181036020830152610dd58184610b85565b90509392505050565b6000604082019050610df36000830185610bfa565b610e006020830184610d47565b9392505050565b60006040820190508181036000830152610e218185610c42565b9050610e306020830184610d47565b9392505050565b60006020820190508181036000830152610e5081610c7b565b9050919050565b60006020820190508181036000830152610e7081610cbb565b9050919050565b6000819050602082019050919050565b600081519050919050565b600081519050919050565b6000602082019050919050565b600082825260208201905092915050565b600082825260208201905092915050565b600082825260208201905092915050565b6000610ee882610efb565b9050919050565b60008115159050919050565b600073ffffffffffffffffffffffffffffffffffffffff82169050919050565b6000819050919050565b60005b83811015610f43578082015181840152602081019050610f28565b83811115610f52576000848401525b50505050565b6000601f19601f8301169050919050565b610f7281610edd565b8114610f7d57600080fd5b50565b610f8981610f1b565b8114610f9457600080fd5b5056fea365627a7a723158204599474927fedb8d34afcbee46871770f49a89086bc5a2ef779e9da04dc993aa6c6578706572696d656e74616cf564736f6c63430005100040",
  "source": "pragma solidity >=0.5.16 <0.9.0;\npragma experimental ABIEncoderV2;\n\n/**\n * @title Ballot\n */\ncontract Ballot {\n\n    struct Voter {\n        bool voted;  // if true, that person already voted\n        uint vote;   // index of the voted candidate\n    }\n\n    struct Candidate {\n        string name;\n        uint voteCount; // number of accumulated votes\n    }\n\n    address public chairperson;\n\n    mapping(address => Voter) public voters;\n\n    Candidate[] public candidates;\n\n    Candidate[] public winners;\n\n    bool public finished;\n\n    /**\n     * @dev Create a new ballot to choose one of 'candidatesNames'.\n     * @param candidatesNames names of candidates\n     */\n    constructor(string[] memory candidatesNames) public {\n        chairperson = msg.sender;\n\n        for (uint i = 0; i < candidatesNames.length; i++) {\n            // 'Candidate({...})' creates a temporary\n            // Candidate object and 'candidates.push(...)'\n            // appends it to the end of 'candidates'.\n            candidates.push(Candidate({\n                name: candidatesNames[i],\n                voteCount: 0\n            }));\n        }\n    }\n\n    function getCandidates() public view\n            returns (Candidate[] memory _candidates) {\n        _candidates = candidates;\n    }\n\n    /**\n     * @dev Give your vote to candidate 'candidates[candidate].name'.\n     * @param candidate index of candidate in the candidates array\n     */\n    function vote(uint candidate) public {\n        Voter storage sender = voters[msg.sender];\n        require(!sender.voted, \"Already voted.\");\n        require(!finished, \"Already finished.\");\n        sender.voted = true;\n        sender.vote = candidate;\n\n        // If 'candidate' is out of the range of the array,\n        // this will throw automatically and revert all\n        // changes.\n        candidates[candidate].voteCount++;\n    }\n\n    function finishVoting() public {\n        finished = true;\n    }\n\n    function isFinished() public view returns (bool finished_) {\n        finished_ = finished;\n    }\n\n    /**\n     * @dev Computes the winning candidate taking all previous votes into account.\n     */\n    function winningProposal() public\n            returns (bool _draw, Candidate[] memory winners_)\n    {\n        uint winningVoteCount = 0;\n\n        for (uint p = 0; p < candidates.length; p++) {\n            if (candidates[p].voteCount > winningVoteCount) {  //TODO: Check if has candidates with same vote count\n                delete winners;\n\n                winningVoteCount = candidates[p].voteCount;\n                _draw = false;\n\n                winners.push(candidates[p]);\n            }\n\n            else if(candidates[p].voteCount > 0 && candidates[p].voteCount == winningVoteCount) {\n                _draw = true;\n                winners.push(candidates[p]);\n            }\n        }\n\n        winners_ = winners;\n    }\n\n    /**\n     * @dev Calls winningProposal() function to get the index of the winner contained in the candidates array and then\n     */\n    function winnerName() public\n            returns (bool draw_, Candidate[] memory winners_)\n    {\n        (bool draw, Candidate[] memory candidatesWinners) = winningProposal();\n            draw_ = draw;\n            winners_ = candidatesWinners;\n\n    }\n}\n",
  "sourcePath": "/home/gferreira/Pessoal/Faculdade/Blockchain/trabalhos/votacao-blockchain/contracts/Ballot.sol",
  "compiler": {
    "name": "solc",
    "version": "0.5.16+commit.9c3226ce.Emscripten.clang"
  },
  "schemaVersion": "3.4.7",
  "updatedAt": "2022-05-26T00:17:25.336Z",
  "networkType": "ethereum",
  "devdoc": {
    "methods": {
      "constructor": {
        "details": "Create a new ballot to choose one of 'candidatesNames'.",
        "params": {
          "candidatesNames": "names of candidates"
        }
      },
      "vote(uint256)": {
        "details": "Give your vote to candidate 'candidates[candidate].name'.",
        "params": {
          "candidate": "index of candidate in the candidates array"
        }
      },
      "winnerName()": {
        "details": "Calls winningProposal() function to get the index of the winner contained in the candidates array and then"
      },
      "winningProposal()": {
        "details": "Computes the winning candidate taking all previous votes into account."
      }
    },
    "title": "Ballot"
  },
  "userdoc": {
    "methods": {}
  }
}